:100000002FC0000065C3000063C3000061C300008F
:100010005FC300005DC300005BC3000059C3000064
:1000200057C3000055C3000053C3000051C3000074
:100030004FC300004DC300004BC3000049C3000084
:1000400047C3000045C3000043C3000041C3000094
:100050003FC3000000600066800066007B0006D29F
:1000600011241FBECFE5D8E0DEBFCDBFE4E5F0E050
:1000700040E017C0B591A59135912591059107FDF7
:100080000CC095918591EF01F92FE82F05900D9205
:10009000A217B307D9F7FE0104C01D92A217B30738
:1000A000E1F7E036F40731F70AD002C0F894FFCF49
:0E00B000EC0160D05CD0CE015BD0CE015AD006
:1000BE0044D166E081E016D1E9D0C8EED3E080E00D
:1000CE00CBD09093630080936200209160003091BA
:1000DE0061008217930799F3D0D02091620030917E
:1000EE006300369527953695279536952795A5EC79
:1000FE00B0E23AD0929582958F7089279F708927AA
:10010E00BC0180E090E03FD08EE216D140916200BB
:10011E00509163009A013695279536952795369519
:10012E002795A5ECB0E220D0929582958F70892705
:10013E009F7089278C9F90018D9F300D9C9F300D55
:10014E001124BA01621B730B80E090E01CD08091E9
:10015E006200909163009093610080936000AFCF36
:02016E000895F2
:020170000895F0
:020172009CDF10
:020174000895EC
:10017600A29FB001B39FC001A39F700D811D1124E2
:0E018600911DB29F700D811D1124911D0895D1
:100194004F925F926F927F928F929F92AF92BF9293
:1001A400CF92DF92EF92FF921F93CF93DF93CDB75D
:1001B400DEB72A970FB6F894DEBF0FBECDBF6B0132
:1001C4007C01CE0101965C018AE0F50111928A95C9
:1001D400E9F7F7FC3BC080E09AE0492E512C612CF2
:1001E400712C11E0180F4501880E911CC701B6014E
:1001F400A301920135D1605DF401608369017A0144
:10020400812FC114D104E104F10459F7112341F001
:100214001150F501E10FF11D808118D11111F8CFB2
:100224002A960FB6F894DEBF0FBECDBFDF91CF91F3
:100234001F91FF90EF90DF90CF90BF90AF909F9071
:100244008F907F906F905F904F9008958DE2FED0D5
:10025400F094E094D094C094C11CD11CE11CF11C16
:02026400BACF0F
:1002660012D1A0916400B09165009C0181DFDC0190
:10027600CB012AE0B695A795979587952A95D1F74C
:020286000895D9
:1002880081E00FD18FEC97E00197F1F700C00000F3
:020298000895C7
:10029A0060E080E138D18FE295E70197F1F700C07D
:1002AA00000083E007D18FE097E20197F1F700C0E1
:1002BA00000083E0FFD087EC90E00197F1F700C0DF
:1002CA00000083E0F7D082E0F5D088E2E9D08CE044
:1002DA00E7D081E0E5D086E0E3D08FEC97E00197A4
:0802EA00F1F700C000000895C7
:1002F20096B1987F96B996B16770692B66B997B136
:100302009F7397B997B140E4849F90011124292BE0
:1003120027B9813069F060F0833031F480E09AE0EF
:1003220090936500809364003D983598379A0895BC
:1003320088E893E190936500809364003D98359836
:04034200379A089549
:0203460084C071
:10034800E6E6F0E041E050E014C08281813081F1BE
:100358009AB39A01018002C0220F331F0A94E2F770
:10036800822F809589238ABB339680E0EB37F80784
:10037800F1F08081882349F3813029F1823099F1A5
:10038800833091F78281813009F448C091B39A0192
:10039800018002C0220F331F0A94E2F7822F809552
:1003A800892381BB339680E0EB37F80711F708956E
:1003B8002AB3CA01018002C0880F991F0A94E2F784
:1003C800822B8ABBD1CF82818130E9F097B39A0121
:1003D800018002C0220F331F0A94E2F7822F809512
:1003E800892387BBC1CF8281813019F194B39A01E7
:1003F800018002C0220F331F0A94E2F7822F8095F2
:10040800892384BBB1CF27B3CA01018002C0880FFA
:10041800991F0A94E2F7822B87BBA6CF21B3CA01A2
:10042800018002C0880F991F0A94E2F7822B81BBD2
:100438009BCF24B3CA01018002C0880F991F0A9478
:08044800E2F7822B84BB90CF88
:10045000CF93C82F61E080E15BD08C2FE4D08C2F4C
:04046000CF912DC04B
:10046400052E97FB16F4009407D157FD05D00CD147
:1004740007FC02D046F400C1509540953095219573
:080484003F4F4F4F5F4F0895F9
:10048C0097B1907E97B997B18F71982B97B9369A8F
:0E049C003699FECF84B125B190E0922B0895E1
:1004AA00CF93C82F60E080E12ED08C2FB7D08C2F4D
:0404BA00CF9100C01E
:1004BE00CF93C82F83FB662760F985E122D0C2FB5C
:1004CE00662760F984E11DD0C1FB662760F983E1E0
:1004DE0018D06C2F617082E114D061E081E111D0EF
:1004EE008FEC97E00197F1F700C0000060E081E12A
:1004FE0008D08FEC97E00197F1F700C00000CF9184
:02050E0008954E
:10051000982F9695969596958770911112C0613097
:1005200051F1611114C04BB321E030E0B90102C0B8
:10053000660F771F8A95E2F7CB01809584238BBBEA
:100540000895913029F09230A9F1933009F108957E
:10055000613009F441C06111FACF48B321E030E0C5
:10056000B90102C0660F771F8A95E2F7CB0180952B
:10057000842388BB08954BB321E030E0B90102C069
:10058000660F771F8A95E2F7CB01842B8BBB08950A
:100590006130E1F16111DBCF42B321E030E0B9011C
:1005A00002C0660F771F8A95E2F7CB0180958423FE
:1005B00082BB08956130E9F06111C9CF45B321E0F4
:1005C00030E0B90102C0660F771F8A95E2F7CB01D0
:1005D0008095842385BB089548B321E030E0B901BC
:1005E00002C0660F771F8A95E2F7CB01842B88BB88
:1005F000089545B321E030E0B90102C0660F771FCE
:100600008A95E2F7CB01842B85BB089542B321E0A4
:1006100030E0B90102C0660F771F8A95E2F7CB017F
:06062000842B82BB08954B
:10062600CF93C82F682F661F6627661F85E16DDF8B
:10063600C6FB662760F984E168DFC5FB662760F9BB
:1006460083E163DFC4FB662760F982E15EDF61E078
:1006560081E15BDF8FEC97E00197F1F700C00000C6
:1006660060E081E152DF8FEC97E00197F1F700C07F
:060676000000CF91089581
:10067C0090958095709561957F4F8F4F9F4F089502
:10068C00A1E21A2EAA1BBB1BFD010DC0AA1FBB1F8A
:10069C00EE1FFF1FA217B307E407F50720F0A21BFC
:1006AC00B30BE40BF50B661F771F881F991F1A9469
:1006BC0069F760957095809590959B01AC01BD0193
:0406CC00CF010895BD
:0206D00097CCC5
:1006D20002000102010102020102030102040102FD
:0506E20005010000000D
:00000001FF
