:100000002FC0000010C200000EC200000CC2000091
:100010000AC2000008C2000006C2000004C20000BC
:1000200002C2000000C20000FEC10000FCC10000CE
:10003000FAC10000F8C10000F6C10000F4C10000E0
:10004000F2C10000F0C10000EEC10000ECC10000F0
:10005000EAC100000060006180006100A400043477
:1000600011241FBECFE5D8E0DEBFCDBFE4E5F0E050
:1000700040E017C0B591A59135912591059107FDF7
:100080000CC095918591EF01F92FE82F05900D9205
:10009000A217B307D9F7FE0104C01D92A217B30738
:1000A000E1F7E036F40731F70AD002C0F894FFCF49
:0E00B000EC0124D020D0CE011FD0CE011ED0F6
:1000BE0006D1A9D0809360008823D9F3C0EDC80F74
:1000CE006C2F617088E114D0C1FB662760F989E15D
:1000DE000FD0C2FB662760F98AE10AD0C3FB662700
:0800EE0060F98BE105D0E5CFBC
:0200F60008956B
:0200F800089569
:0200FA00D8DF4D
:0200FC00089565
:1000FE00982F9695969596958770911112C06130AE
:10010E0051F1611114C04BB321E030E0B90102C0CE
:10011E00660F771F8A95E2F7CB01809584238BBB00
:10012E000895913029F09230A9F1933009F1089594
:10013E00613009F441C06111FACF48B321E030E0DB
:10014E00B90102C0660F771F8A95E2F7CB01809541
:10015E00842388BB08954BB321E030E0B90102C07F
:10016E00660F771F8A95E2F7CB01842B8BBB089520
:10017E006130E1F16111DBCF42B321E030E0B90132
:10018E0002C0660F771F8A95E2F7CB018095842314
:10019E0082BB08956130E9F06111C9CF45B321E00A
:1001AE0030E0B90102C0660F771F8A95E2F7CB01E6
:1001BE008095842385BB089548B321E030E0B901D2
:1001CE0002C0660F771F8A95E2F7CB01842B88BB9E
:1001DE00089545B321E030E0B90102C0660F771FE4
:1001EE008A95E2F7CB01842B85BB089542B321E0BB
:1001FE0030E0B90102C0660F771F8A95E2F7CB0196
:06020E00842B82BB089561
:100214004F925F926F928F929F92AF92BF92CF92C2
:10022400DF92EF92FF920F931F93CF93DF9304E635
:1002340010E028E6822E20E0922EE80160E0899109
:100244005CDF8C169D06D1F788E2482E84E0582E98
:1002540080E0682EF12C94E6A92E90E0B92E61E09E
:10026400F80180814ADFC1E6D0E0E62C6201899181
:10027400B0D0813021F1FFEFCF1ADF0AEF0AAC16BC
:10028400BD06A9F760E0F80181918F0136DFF3E044
:100294004F0E511C611C8016910609F78F2DDF91BA
:1002A400CF911F910F91FF90EF90DF90CF90BF906F
:1002B400AF909F908F906F905F904F900895F6014C
:0802C400F490E7FCF080D7CFB5
:1002CC00E8E6F0E041E050E015C08281813009F4AD
:1002DC0040C09AB39A01018002C0220F331F0A94C6
:1002EC00E2F7822F809589238ABB339680E0E43A2B
:1002FC00F807F1F08081882341F38130D1F082300E
:10030C0099F1833091F78281813009F453C091B314
:10031C009A01018002C0220F331F0A94E2F7822F48
:10032C008095892381BB339680E0E43AF80711F776
:10033C0008958281813041F197B39A01018002C006
:10034C00220F331F0A94E2F7822F8095892387BBF3
:10035C00CCCF2AB3CA01018002C0880F991F0A941E
:10036C00E2F7822B8ABBC1CF82818130C1F094B37A
:10037C009A01018002C0220F331F0A94E2F7822FE8
:10038C008095892384BBB1CF27B3CA01018002C0F9
:10039C00880F991F0A94E2F7822B87BBA6CF24B350
:1003AC00CA01018002C0880F991F0A94E2F7822BC0
:1003BC0084BB9BCF21B3CA01018002C0880F991F57
:0A03CC000A94E2F7822B81BB90CF68
:1003D600982F969596959695482F4770992341F0B4
:1003E600913081F09230D1F09330B1F080E00895F1
:1003F60099B3892F90E002C0959587954A95E2F7C3
:100406008170089526B330E0C90102C0959587959D
:100416004A95E2F78170089520B3F5CF23B3F3CF61
:02042600ECCD1B
:0C0428003132333435363738392A30236E
:0304340014151686
:04043700101112137B
:10043B000200010201010202010203010204000297
:10044B00050002060003000103010103020103037F
:10045B000100000000000000000000000000000090
:0C046B0000000000000000000000000085
:00000001FF
