:100000002DC000004BC2000049C2000047C20000E2
:1000100045C2000043C2000041C200003FC20000D0
:100020003DC200003BC2000039C2000037C20000E0
:1000300035C2000033C2000031C200002FC20000F0
:100040002DC200002BC2000029C2000027C2000000
:1000500025C20000006000720004AC0011241FBE25
:10006000CFE5D8E0DEBFCDBFE4E5F0E040E017C06B
:10007000B591A59135912591059107FD0CC09591FC
:100080008591EF01F92FE82F05900D92A217B30784
:10009000D9F7FE0104C01D92A217B307E1F7EB35B3
:0C00A000F40731F70AD002C0F894FFCF3B
:0E00AC00EC0126D022D0CE0121D0CE0120D0F2
:1000BA0083D056D065E081E01FD06EE974E080E01D
:1000CA0028D02FEF83ED90E3215080409040E1F754
:1000DA0000C000000FD02FEF83ED90E32150804045
:0C00EA009040E1F700C0000005D0FFCFFF
:0200F60008956B
:0200F800089569
:0200FA00D6DF4F
:0200FC00089565
:0400FE0088E1E4C0F1
:10010200813039F0823009F008958FEF860F806CCC
:0A011200DBC08FEF860F8068D7C0B6
:10011C00CF92DF92EF92CF93DF936B01E82EFB012E
:10012C00C491E7FCC081CC23A1F0D0E061E080E178
:10013C0024D18C2FCED08C2FF7D0DF5FAE2DC60103
:10014C008D0F911DA11DFC01C491A7FDC081C11192
:0E015C00EDCFDF91CF91EF90DF90CF9008951F
:10016A0060E080E10BD18FE295E70197F1F700C0DB
:10017A00000083E0DAD08FE097E20197F1F700C040
:10018A00000083E0D2D087EC90E00197F1F700C03D
:10019A00000083E0CAD082E0C8D088E291D08CE027
:1001AA008FD081E08DD086E08BD08FEC97E00197DD
:0801BA00F1F700C000000895F8
:1001C200E0E6F0E041E050E014C08281813081F14C
:1001D2009AB39A01018002C0220F331F0A94E2F7F8
:1001E200822F809589238ABB339680E0E237F80715
:1001F200F1F08081882349F3813029F1823099F12D
:10020200833091F78281813009F453C091B39A010E
:10021200018002C0220F331F0A94E2F7822F8095D9
:10022200892381BB339680E0E237F80711F70895FE
:100232002AB3CA01018002C0880F991F0A94E2F70B
:10024200822B8ABBD1CF82818130E9F097B39A01A8
:10025200018002C0220F331F0A94E2F7822F809599
:10026200892387BBC1CF82818130C1F094B39A01C7
:10027200018002C0220F331F0A94E2F7822F809579
:10028200892384BBB1CF27B3CA01018002C0880F82
:10029200991F0A94E2F7822B87BBA6CF24B3CA0127
:1002A200018002C0880F991F0A94E2F7822B84BB57
:1002B2009BCF21B3CA01018002C0880F991F0A9403
:0802C200E2F7822B81BB90CF13
:1002CA00CF93C82F60E080E159D08C2F03D08C2FB8
:0402DA00CF912BC0D5
:1002DE00CF93C82F682F661F6627661F85E14CD007
:1002EE00C6FB662760F984E147D0C5FB662760F937
:1002FE0083E142D0C4FB662760F982E13DD061E024
:10030E0081E13AD08FEC97E00197F1F700C0000041
:10031E0060E081E131D08FEC97E00197F1F700C0FA
:06032E000000CF910895CC
:10033400CF93C82F83FB662760F985E122D0C2FBE7
:10034400662760F984E11DD0C1FB662760F983E16B
:1003540018D06C2F617082E114D061E081E111D07A
:100364008FEC97E00197F1F700C0000060E081E1B5
:1003740008D08FEC97E00197F1F700C00000CF910F
:020384000895DA
:10038600982F9695969596958770911112C0613023
:1003960051F1611114C04BB321E030E0B90102C044
:1003A600660F771F8A95E2F7CB01809584238BBB76
:1003B6000895913029F09230A9F1933009F108950A
:1003C600613009F441C06111FACF48B321E030E051
:1003D600B90102C0660F771F8A95E2F7CB018095B7
:1003E600842388BB08954BB321E030E0B90102C0F5
:1003F600660F771F8A95E2F7CB01842B8BBB089596
:100406006130E1F16111DBCF42B321E030E0B901A7
:1004160002C0660F771F8A95E2F7CB018095842389
:1004260082BB08956130E9F06111C9CF45B321E07F
:1004360030E0B90102C0660F771F8A95E2F7CB015B
:100446008095842385BB089548B321E030E0B90147
:1004560002C0660F771F8A95E2F7CB01842B88BB13
:10046600089545B321E030E0B90102C0660F771F59
:100476008A95E2F7CB01842B85BB089542B321E030
:1004860030E0B90102C0660F771F8A95E2F7CB010B
:06049600842B82BB0895D7
:02049C00B1CDE0
:0E049E0048656C6C6F2C20576F726C642100E7
:1004AC000200010201010202010203010204010225
:0204BC00050138
:00000001FF
